{
  "_format": "hh-sol-artifact-1",
  "contractName": "LotteryUpgradable",
  "sourceName": "contracts/LotteryUpgrade.sol",
  "abi": [
    {
      "anonymous": false,
      "inputs": [
        {
          "indexed": true,
          "internalType": "address",
          "name": "owner",
          "type": "address"
        },
        {
          "indexed": true,
          "internalType": "address",
          "name": "spender",
          "type": "address"
        },
        {
          "indexed": false,
          "internalType": "uint256",
          "name": "value",
          "type": "uint256"
        }
      ],
      "name": "Approval",
      "type": "event"
    },
    {
      "anonymous": false,
      "inputs": [
        {
          "indexed": false,
          "internalType": "uint256",
          "name": "amount",
          "type": "uint256"
        }
      ],
      "name": "Bought",
      "type": "event"
    },
    {
      "anonymous": false,
      "inputs": [
        {
          "indexed": false,
          "internalType": "uint256",
          "name": "lotteryId",
          "type": "uint256"
        }
      ],
      "name": "ClaimedReward",
      "type": "event"
    },
    {
      "anonymous": false,
      "inputs": [
        {
          "indexed": false,
          "internalType": "uint256",
          "name": "lotteryId",
          "type": "uint256"
        }
      ],
      "name": "CompletedLottery",
      "type": "event"
    },
    {
      "anonymous": false,
      "inputs": [
        {
          "indexed": false,
          "internalType": "uint256",
          "name": "lotteryId",
          "type": "uint256"
        }
      ],
      "name": "OpenedLottery",
      "type": "event"
    },
    {
      "anonymous": false,
      "inputs": [
        {
          "indexed": true,
          "internalType": "address",
          "name": "previousOwner",
          "type": "address"
        },
        {
          "indexed": true,
          "internalType": "address",
          "name": "newOwner",
          "type": "address"
        }
      ],
      "name": "OwnershipTransferred",
      "type": "event"
    },
    {
      "anonymous": false,
      "inputs": [
        {
          "indexed": false,
          "internalType": "uint256",
          "name": "requestId",
          "type": "uint256"
        }
      ],
      "name": "RequestedRandomWords",
      "type": "event"
    },
    {
      "anonymous": false,
      "inputs": [
        {
          "indexed": true,
          "internalType": "address",
          "name": "from",
          "type": "address"
        },
        {
          "indexed": true,
          "internalType": "address",
          "name": "to",
          "type": "address"
        },
        {
          "indexed": false,
          "internalType": "uint256",
          "name": "value",
          "type": "uint256"
        }
      ],
      "name": "Transfer",
      "type": "event"
    },
    {
      "inputs": [
        {
          "internalType": "uint256",
          "name": "",
          "type": "uint256"
        }
      ],
      "name": "allLotteries",
      "outputs": [
        {
          "internalType": "uint256",
          "name": "_lotteryID",
          "type": "uint256"
        },
        {
          "internalType": "uint256",
          "name": "_costPerTicket",
          "type": "uint256"
        },
        {
          "internalType": "uint256",
          "name": "_startingTimestamp",
          "type": "uint256"
        },
        {
          "internalType": "uint256",
          "name": "_closingTimestamp",
          "type": "uint256"
        },
        {
          "internalType": "address",
          "name": "_winner",
          "type": "address"
        },
        {
          "internalType": "uint256",
          "name": "_randomResult",
          "type": "uint256"
        }
      ],
      "stateMutability": "view",
      "type": "function"
    },
    {
      "inputs": [
        {
          "internalType": "address",
          "name": "owner",
          "type": "address"
        },
        {
          "internalType": "address",
          "name": "spender",
          "type": "address"
        }
      ],
      "name": "allowance",
      "outputs": [
        {
          "internalType": "uint256",
          "name": "",
          "type": "uint256"
        }
      ],
      "stateMutability": "view",
      "type": "function"
    },
    {
      "inputs": [
        {
          "internalType": "address",
          "name": "spender",
          "type": "address"
        },
        {
          "internalType": "uint256",
          "name": "amount",
          "type": "uint256"
        }
      ],
      "name": "approve",
      "outputs": [
        {
          "internalType": "bool",
          "name": "",
          "type": "bool"
        }
      ],
      "stateMutability": "nonpayable",
      "type": "function"
    },
    {
      "inputs": [
        {
          "internalType": "address",
          "name": "account",
          "type": "address"
        }
      ],
      "name": "balanceOf",
      "outputs": [
        {
          "internalType": "uint256",
          "name": "",
          "type": "uint256"
        }
      ],
      "stateMutability": "view",
      "type": "function"
    },
    {
      "inputs": [],
      "name": "bingo",
      "outputs": [],
      "stateMutability": "nonpayable",
      "type": "function"
    },
    {
      "inputs": [
        {
          "internalType": "uint256",
          "name": "_ticketAmount",
          "type": "uint256"
        }
      ],
      "name": "buyTickets",
      "outputs": [],
      "stateMutability": "nonpayable",
      "type": "function"
    },
    {
      "inputs": [],
      "name": "buyToken",
      "outputs": [],
      "stateMutability": "payable",
      "type": "function"
    },
    {
      "inputs": [
        {
          "internalType": "uint256",
          "name": "",
          "type": "uint256"
        }
      ],
      "name": "choosenNumber",
      "outputs": [
        {
          "internalType": "address",
          "name": "",
          "type": "address"
        }
      ],
      "stateMutability": "view",
      "type": "function"
    },
    {
      "inputs": [],
      "name": "closeLottery",
      "outputs": [],
      "stateMutability": "nonpayable",
      "type": "function"
    },
    {
      "inputs": [],
      "name": "costPerTicket",
      "outputs": [
        {
          "internalType": "uint256",
          "name": "",
          "type": "uint256"
        }
      ],
      "stateMutability": "view",
      "type": "function"
    },
    {
      "inputs": [],
      "name": "currentLottery",
      "outputs": [
        {
          "internalType": "uint256",
          "name": "_lotteryID",
          "type": "uint256"
        },
        {
          "internalType": "uint256",
          "name": "_costPerTicket",
          "type": "uint256"
        },
        {
          "internalType": "uint256",
          "name": "_startingTimestamp",
          "type": "uint256"
        },
        {
          "internalType": "uint256",
          "name": "_closingTimestamp",
          "type": "uint256"
        },
        {
          "internalType": "address",
          "name": "_winner",
          "type": "address"
        },
        {
          "internalType": "uint256",
          "name": "_randomResult",
          "type": "uint256"
        }
      ],
      "stateMutability": "view",
      "type": "function"
    },
    {
      "inputs": [],
      "name": "decimals",
      "outputs": [
        {
          "internalType": "uint8",
          "name": "",
          "type": "uint8"
        }
      ],
      "stateMutability": "view",
      "type": "function"
    },
    {
      "inputs": [
        {
          "internalType": "address",
          "name": "spender",
          "type": "address"
        },
        {
          "internalType": "uint256",
          "name": "subtractedValue",
          "type": "uint256"
        }
      ],
      "name": "decreaseAllowance",
      "outputs": [
        {
          "internalType": "bool",
          "name": "",
          "type": "bool"
        }
      ],
      "stateMutability": "nonpayable",
      "type": "function"
    },
    {
      "inputs": [],
      "name": "getAvailableTicket",
      "outputs": [
        {
          "internalType": "uint256",
          "name": "",
          "type": "uint256"
        }
      ],
      "stateMutability": "view",
      "type": "function"
    },
    {
      "inputs": [],
      "name": "getContractTokenBalance",
      "outputs": [
        {
          "internalType": "uint256",
          "name": "",
          "type": "uint256"
        }
      ],
      "stateMutability": "view",
      "type": "function"
    },
    {
      "inputs": [],
      "name": "getCurrentGame",
      "outputs": [
        {
          "components": [
            {
              "internalType": "uint256",
              "name": "_lotteryID",
              "type": "uint256"
            },
            {
              "internalType": "uint256",
              "name": "_costPerTicket",
              "type": "uint256"
            },
            {
              "internalType": "uint256",
              "name": "_startingTimestamp",
              "type": "uint256"
            },
            {
              "internalType": "uint256",
              "name": "_closingTimestamp",
              "type": "uint256"
            },
            {
              "internalType": "address",
              "name": "_winner",
              "type": "address"
            },
            {
              "internalType": "uint256",
              "name": "_randomResult",
              "type": "uint256"
            }
          ],
          "internalType": "struct LotteryUpgradable.LotteryInfo",
          "name": "",
          "type": "tuple"
        }
      ],
      "stateMutability": "view",
      "type": "function"
    },
    {
      "inputs": [
        {
          "internalType": "uint256",
          "name": "lottery",
          "type": "uint256"
        }
      ],
      "name": "getLotteryInfo",
      "outputs": [
        {
          "components": [
            {
              "internalType": "uint256",
              "name": "_lotteryID",
              "type": "uint256"
            },
            {
              "internalType": "uint256",
              "name": "_costPerTicket",
              "type": "uint256"
            },
            {
              "internalType": "uint256",
              "name": "_startingTimestamp",
              "type": "uint256"
            },
            {
              "internalType": "uint256",
              "name": "_closingTimestamp",
              "type": "uint256"
            },
            {
              "internalType": "address",
              "name": "_winner",
              "type": "address"
            },
            {
              "internalType": "uint256",
              "name": "_randomResult",
              "type": "uint256"
            }
          ],
          "internalType": "struct LotteryUpgradable.LotteryInfo",
          "name": "",
          "type": "tuple"
        }
      ],
      "stateMutability": "view",
      "type": "function"
    },
    {
      "inputs": [],
      "name": "getLotteryPrize",
      "outputs": [],
      "stateMutability": "nonpayable",
      "type": "function"
    },
    {
      "inputs": [],
      "name": "getPlayerNumbers",
      "outputs": [
        {
          "internalType": "uint256[]",
          "name": "",
          "type": "uint256[]"
        }
      ],
      "stateMutability": "view",
      "type": "function"
    },
    {
      "inputs": [],
      "name": "getPlayerTokenBalance",
      "outputs": [
        {
          "internalType": "uint256",
          "name": "",
          "type": "uint256"
        }
      ],
      "stateMutability": "view",
      "type": "function"
    },
    {
      "inputs": [],
      "name": "getTotalPlayer",
      "outputs": [
        {
          "internalType": "uint256",
          "name": "",
          "type": "uint256"
        }
      ],
      "stateMutability": "view",
      "type": "function"
    },
    {
      "inputs": [
        {
          "internalType": "address",
          "name": "spender",
          "type": "address"
        },
        {
          "internalType": "uint256",
          "name": "addedValue",
          "type": "uint256"
        }
      ],
      "name": "increaseAllowance",
      "outputs": [
        {
          "internalType": "bool",
          "name": "",
          "type": "bool"
        }
      ],
      "stateMutability": "nonpayable",
      "type": "function"
    },
    {
      "inputs": [
        {
          "internalType": "string",
          "name": "_name",
          "type": "string"
        },
        {
          "internalType": "string",
          "name": "_symbol",
          "type": "string"
        }
      ],
      "name": "initialize",
      "outputs": [],
      "stateMutability": "nonpayable",
      "type": "function"
    },
    {
      "inputs": [],
      "name": "isWinnerWithdraw",
      "outputs": [
        {
          "internalType": "bool",
          "name": "",
          "type": "bool"
        }
      ],
      "stateMutability": "view",
      "type": "function"
    },
    {
      "inputs": [
        {
          "internalType": "address",
          "name": "",
          "type": "address"
        }
      ],
      "name": "limitedAmount",
      "outputs": [
        {
          "internalType": "uint256",
          "name": "",
          "type": "uint256"
        }
      ],
      "stateMutability": "view",
      "type": "function"
    },
    {
      "inputs": [],
      "name": "lotteryID",
      "outputs": [
        {
          "internalType": "uint256",
          "name": "",
          "type": "uint256"
        }
      ],
      "stateMutability": "view",
      "type": "function"
    },
    {
      "inputs": [],
      "name": "lotteryStatus",
      "outputs": [
        {
          "internalType": "enum LotteryUpgradable.Status",
          "name": "",
          "type": "uint8"
        }
      ],
      "stateMutability": "view",
      "type": "function"
    },
    {
      "inputs": [],
      "name": "name",
      "outputs": [
        {
          "internalType": "string",
          "name": "",
          "type": "string"
        }
      ],
      "stateMutability": "view",
      "type": "function"
    },
    {
      "inputs": [],
      "name": "owner",
      "outputs": [
        {
          "internalType": "address",
          "name": "",
          "type": "address"
        }
      ],
      "stateMutability": "view",
      "type": "function"
    },
    {
      "inputs": [
        {
          "internalType": "address",
          "name": "",
          "type": "address"
        },
        {
          "internalType": "uint256",
          "name": "",
          "type": "uint256"
        }
      ],
      "name": "playerTicketNumbers",
      "outputs": [
        {
          "internalType": "uint256",
          "name": "",
          "type": "uint256"
        }
      ],
      "stateMutability": "view",
      "type": "function"
    },
    {
      "inputs": [
        {
          "internalType": "uint256",
          "name": "",
          "type": "uint256"
        }
      ],
      "name": "players",
      "outputs": [
        {
          "internalType": "address payable",
          "name": "",
          "type": "address"
        }
      ],
      "stateMutability": "view",
      "type": "function"
    },
    {
      "inputs": [],
      "name": "randomResult",
      "outputs": [
        {
          "internalType": "uint256",
          "name": "",
          "type": "uint256"
        }
      ],
      "stateMutability": "view",
      "type": "function"
    },
    {
      "inputs": [],
      "name": "renounceOwnership",
      "outputs": [],
      "stateMutability": "nonpayable",
      "type": "function"
    },
    {
      "inputs": [
        {
          "internalType": "uint256",
          "name": "_costPerTicket",
          "type": "uint256"
        }
      ],
      "name": "startNewLottery",
      "outputs": [],
      "stateMutability": "nonpayable",
      "type": "function"
    },
    {
      "inputs": [],
      "name": "startingTimestamp",
      "outputs": [
        {
          "internalType": "uint256",
          "name": "",
          "type": "uint256"
        }
      ],
      "stateMutability": "view",
      "type": "function"
    },
    {
      "inputs": [],
      "name": "symbol",
      "outputs": [
        {
          "internalType": "string",
          "name": "",
          "type": "string"
        }
      ],
      "stateMutability": "view",
      "type": "function"
    },
    {
      "inputs": [],
      "name": "totalSupply",
      "outputs": [
        {
          "internalType": "uint256",
          "name": "",
          "type": "uint256"
        }
      ],
      "stateMutability": "view",
      "type": "function"
    },
    {
      "inputs": [
        {
          "internalType": "address",
          "name": "recipient",
          "type": "address"
        },
        {
          "internalType": "uint256",
          "name": "amount",
          "type": "uint256"
        }
      ],
      "name": "transfer",
      "outputs": [
        {
          "internalType": "bool",
          "name": "",
          "type": "bool"
        }
      ],
      "stateMutability": "nonpayable",
      "type": "function"
    },
    {
      "inputs": [
        {
          "internalType": "address",
          "name": "sender",
          "type": "address"
        },
        {
          "internalType": "address",
          "name": "recipient",
          "type": "address"
        },
        {
          "internalType": "uint256",
          "name": "amount",
          "type": "uint256"
        }
      ],
      "name": "transferFrom",
      "outputs": [
        {
          "internalType": "bool",
          "name": "",
          "type": "bool"
        }
      ],
      "stateMutability": "nonpayable",
      "type": "function"
    },
    {
      "inputs": [
        {
          "internalType": "address",
          "name": "newOwner",
          "type": "address"
        }
      ],
      "name": "transferOwnership",
      "outputs": [],
      "stateMutability": "nonpayable",
      "type": "function"
    },
    {
      "inputs": [],
      "name": "winner",
      "outputs": [
        {
          "internalType": "address payable",
          "name": "",
          "type": "address"
        }
      ],
      "stateMutability": "view",
      "type": "function"
    },
    {
      "inputs": [],
      "name": "x",
      "outputs": [
        {
          "internalType": "uint256",
          "name": "",
          "type": "uint256"
        }
      ],
      "stateMutability": "view",
      "type": "function"
    },
    {
      "inputs": [],
      "name": "y",
      "outputs": [
        {
          "internalType": "address",
          "name": "",
          "type": "address"
        }
      ],
      "stateMutability": "view",
      "type": "function"
    },
    {
      "inputs": [],
      "name": "z",
      "outputs": [
        {
          "internalType": "uint256",
          "name": "",
          "type": "uint256"
        }
      ],
      "stateMutability": "view",
      "type": "function"
    }
  ],
  "bytecode": "0x608060405234801561001057600080fd5b5061540f806100206000396000f3fe6080604052600436106102675760003560e01c806371fcf10311610144578063a7724b16116100b6578063d780c4771161007a578063d780c4771461093b578063dcee3b2a14610952578063dd62ed3e1461098f578063dfbf53ae146109cc578063f2fde38b146109f7578063f71d96cb14610a2057610267565b8063a7724b1614610854578063a9059cbb1461086b578063acd21da7146108a8578063c5d7802e146108e5578063d56520931461091057610267565b806395d89b411161010857806395d89b4114610761578063968d901b1461078c5780639be064c1146107b7578063a457c2d7146107e2578063a48217191461081f578063a56dfe4a1461082957610267565b806371fcf1031461066657806376b3c8a81461069157806388786272146106ce5780638b22e444146106f95780638da5cb5b1461073657610267565b8063317d9453116101dd57806346f9bedf116101a157806346f9bedf1461057e5780634cd88b76146105a95780634edf7a95146105d25780636fd09816146105fb57806370a0823114610612578063715018a61461064f57610267565b8063317d94531461046c57806339509351146104975780633c4c1e4c146104d457806342619f661461051157806343531c611461053c57610267565b806318160ddd1161022f57806318160ddd1461035557806321ae28e31461038057806323b872dd146103ab5780632bd56b06146103e85780632f36663714610418578063313ce5671461044157610267565b80630113ea5b1461026c57806306fdde0314610297578063095ea7b3146102c25780630c55699c146102ff5780630d683dd91461032a575b600080fd5b34801561027857600080fd5b50610281610a5d565b60405161028e9190613b18565b60405180910390f35b3480156102a357600080fd5b506102ac610a6a565b6040516102b99190613bcc565b60405180910390f35b3480156102ce57600080fd5b506102e960048036038101906102e49190613c8c565b610afc565b6040516102f69190613ce7565b60405180910390f35b34801561030b57600080fd5b50610314610b1a565b6040516103219190613b18565b60405180910390f35b34801561033657600080fd5b5061033f610b20565b60405161034c9190613d79565b60405180910390f35b34801561036157600080fd5b5061036a610b33565b6040516103779190613b18565b60405180910390f35b34801561038c57600080fd5b50610395610b3d565b6040516103a29190613b18565b60405180910390f35b3480156103b757600080fd5b506103d260048036038101906103cd9190613d94565b610b4d565b6040516103df9190613ce7565b60405180910390f35b3480156103f457600080fd5b506103fd610c45565b60405161040f96959493929190613df6565b60405180910390f35b34801561042457600080fd5b5061043f600480360381019061043a9190613e57565b610c8f565b005b34801561044d57600080fd5b506104566111ad565b6040516104639190613ea0565b60405180910390f35b34801561047857600080fd5b506104816111b6565b60405161048e9190613b18565b60405180910390f35b3480156104a357600080fd5b506104be60048036038101906104b99190613c8c565b611242565b6040516104cb9190613ce7565b60405180910390f35b3480156104e057600080fd5b506104fb60048036038101906104f69190613ebb565b6112ee565b6040516105089190613b18565b60405180910390f35b34801561051d57600080fd5b50610526611306565b6040516105339190613b18565b60405180910390f35b34801561054857600080fd5b50610563600480360381019061055e9190613e57565b61130c565b60405161057596959493929190613df6565b60405180910390f35b34801561058a57600080fd5b50610593611368565b6040516105a09190613b18565b60405180910390f35b3480156105b557600080fd5b506105d060048036038101906105cb919061401d565b61136e565b005b3480156105de57600080fd5b506105f960048036038101906105f49190613e57565b6114fb565b005b34801561060757600080fd5b50610610611704565b005b34801561061e57600080fd5b5061063960048036038101906106349190613ebb565b611931565b6040516106469190613b18565b60405180910390f35b34801561065b57600080fd5b5061066461197a565b005b34801561067257600080fd5b5061067b611a02565b6040516106889190613ce7565b60405180910390f35b34801561069d57600080fd5b506106b860048036038101906106b39190613e57565b611a15565b6040516106c5919061412e565b60405180910390f35b3480156106da57600080fd5b506106e3611aca565b6040516106f09190613b18565b60405180910390f35b34801561070557600080fd5b50610720600480360381019061071b9190613c8c565b611ad0565b60405161072d9190613b18565b60405180910390f35b34801561074257600080fd5b5061074b611b01565b6040516107589190614149565b60405180910390f35b34801561076d57600080fd5b50610776611b2b565b6040516107839190613bcc565b60405180910390f35b34801561079857600080fd5b506107a1611bbd565b6040516107ae919061412e565b60405180910390f35b3480156107c357600080fd5b506107cc611c5f565b6040516107d99190613b18565b60405180910390f35b3480156107ee57600080fd5b5061080960048036038101906108049190613c8c565b611c65565b6040516108169190613ce7565b60405180910390f35b610827611d50565b005b34801561083557600080fd5b5061083e611e2a565b60405161084b9190614149565b60405180910390f35b34801561086057600080fd5b50610869611e50565b005b34801561087757600080fd5b50610892600480360381019061088d9190613c8c565b61212b565b60405161089f9190613ce7565b60405180910390f35b3480156108b457600080fd5b506108cf60048036038101906108ca9190613e57565b612149565b6040516108dc9190614149565b60405180910390f35b3480156108f157600080fd5b506108fa61217c565b6040516109079190613b18565b60405180910390f35b34801561091c57600080fd5b50610925612182565b6040516109329190613b18565b60405180910390f35b34801561094757600080fd5b5061095061218c565b005b34801561095e57600080fd5b5061097960048036038101906109749190613ebb565b612468565b6040516109869190614213565b60405180910390f35b34801561099b57600080fd5b506109b660048036038101906109b19190614235565b6124ff565b6040516109c39190613b18565b60405180910390f35b3480156109d857600080fd5b506109e1612586565b6040516109ee9190614296565b60405180910390f35b348015610a0357600080fd5b50610a1e6004803603810190610a199190613ebb565b6125ac565b005b348015610a2c57600080fd5b50610a476004803603810190610a429190613e57565b6126a4565b604051610a549190614296565b60405180910390f35b6000609980549050905090565b606060688054610a79906142e0565b80601f0160208091040260200160405190810160405280929190818152602001828054610aa5906142e0565b8015610af25780601f10610ac757610100808354040283529160200191610af2565b820191906000526020600020905b815481529060010190602001808311610ad557829003601f168201915b5050505050905090565b6000610b10610b096126e3565b84846126eb565b6001905092915050565b60ae5481565b60a960009054906101000a900460ff1681565b6000606754905090565b6000610b4833611931565b905090565b6000610b5a8484846128b6565b6000606660008673ffffffffffffffffffffffffffffffffffffffff1673ffffffffffffffffffffffffffffffffffffffff1681526020019081526020016000206000610ba56126e3565b73ffffffffffffffffffffffffffffffffffffffff1673ffffffffffffffffffffffffffffffffffffffff16815260200190815260200160002054905082811015610c25576040517f08c379a0000000000000000000000000000000000000000000000000000000008152600401610c1c90614384565b60405180910390fd5b610c3985610c316126e3565b8584036126eb565b60019150509392505050565b60a38060000154908060010154908060020154908060030154908060040160009054906101000a900473ffffffffffffffffffffffffffffffffffffffff16908060050154905086565b8060148160ad60003373ffffffffffffffffffffffffffffffffffffffff1673ffffffffffffffffffffffffffffffffffffffff16815260200190815260200160002054610cdd91906143d3565b1115610d1e576040517f08c379a0000000000000000000000000000000000000000000000000000000008152600401610d1590614475565b60405180910390fd5b818060a1541015610d64576040517f08c379a0000000000000000000000000000000000000000000000000000000008152600401610d5b906144e1565b60405180910390fd5b60016003811115610d7857610d77613d02565b5b60a960009054906101000a900460ff166003811115610d9a57610d99613d02565b5b14610dda576040517f08c379a0000000000000000000000000000000000000000000000000000000008152600401610dd19061454d565b60405180910390fd5b609e544210610e1e576040517f08c379a0000000000000000000000000000000000000000000000000000000008152600401610e15906145b9565b60405180910390fd5b610e26611b01565b73ffffffffffffffffffffffffffffffffffffffff163373ffffffffffffffffffffffffffffffffffffffff161415610e94576040517f08c379a0000000000000000000000000000000000000000000000000000000008152600401610e8b90614625565b60405180910390fd5b6000609c5484610ea49190614645565b905080610eaf610b3d565b1015610ef0576040517f08c379a0000000000000000000000000000000000000000000000000000000008152600401610ee7906146eb565b60405180910390fd5b60008411610f33576040517f08c379a0000000000000000000000000000000000000000000000000000000008152600401610f2a90614757565b60405180910390fd5b6014841115610f77576040517f08c379a0000000000000000000000000000000000000000000000000000000008152600401610f6e906147c3565b60405180910390fd5b60005b848110156110a357600060a060a25481548110610f9a57610f996147e3565b5b9060005260206000200154905060aa60003373ffffffffffffffffffffffffffffffffffffffff1673ffffffffffffffffffffffffffffffffffffffff1681526020019081526020016000208190806001815401808255809150506001900390600052602060002001600090919091909150553360ac600083815260200190815260200160002060006101000a81548173ffffffffffffffffffffffffffffffffffffffff021916908373ffffffffffffffffffffffffffffffffffffffff16021790555060a2600081548092919061107290614812565b919050555060a1600081548092919061108a9061485b565b919050555050808061109b90614812565b915050610f7a565b506110ae308261212b565b506111018460ad60003373ffffffffffffffffffffffffffffffffffffffff1673ffffffffffffffffffffffffffffffffffffffff16815260200190815260200160002054612b3a90919063ffffffff16565b60ad60003373ffffffffffffffffffffffffffffffffffffffff1673ffffffffffffffffffffffffffffffffffffffff168152602001908152602001600020819055506099339080600181540180825580915050600190039060005260206000200160009091909190916101000a81548173ffffffffffffffffffffffffffffffffffffffff021916908373ffffffffffffffffffffffffffffffffffffffff16021790555050505050565b60006012905090565b60006111c06126e3565b73ffffffffffffffffffffffffffffffffffffffff166111de611b01565b73ffffffffffffffffffffffffffffffffffffffff1614611234576040517f08c379a000000000000000000000000000000000000000000000000000000000815260040161122b906148d1565b60405180910390fd5b61123d30611931565b905090565b60006112e461124f6126e3565b84846066600061125d6126e3565b73ffffffffffffffffffffffffffffffffffffffff1673ffffffffffffffffffffffffffffffffffffffff16815260200190815260200160002060008873ffffffffffffffffffffffffffffffffffffffff1673ffffffffffffffffffffffffffffffffffffffff168152602001908152602001600020546112df91906143d3565b6126eb565b6001905092915050565b60ad6020528060005260406000206000915090505481565b60985481565b60ab6020528060005260406000206000915090508060000154908060010154908060020154908060030154908060040160009054906101000a900473ffffffffffffffffffffffffffffffffffffffff16908060050154905086565b609c5481565b600060019054906101000a900460ff1680611394575060008054906101000a900460ff16155b6113d3576040517f08c379a00000000000000000000000000000000000000000000000000000000081526004016113ca90614963565b60405180910390fd5b60008060019054906101000a900460ff161590508015611423576001600060016101000a81548160ff02191690831515021790555060016000806101000a81548160ff0219169083151502179055505b61142b612b62565b6114358383612c4b565b735ed1fdfa194f30cb9e28f126a843d1368f82decb609760006101000a81548173ffffffffffffffffffffffffffffffffffffffff021916908373ffffffffffffffffffffffffffffffffffffffff160217905550611492612d38565b61149a612d86565b600060a960006101000a81548160ff021916908360038111156114c0576114bf613d02565b5b0217905550606360a181905550600060a28190555080156114f65760008060016101000a81548160ff0219169083151502179055505b505050565b6115036126e3565b73ffffffffffffffffffffffffffffffffffffffff16611521611b01565b73ffffffffffffffffffffffffffffffffffffffff1614611577576040517f08c379a000000000000000000000000000000000000000000000000000000000815260040161156e906148d1565b60405180910390fd5b6000600381111561158b5761158a613d02565b5b60a960009054906101000a900460ff1660038111156115ad576115ac613d02565b5b146115ed576040517f08c379a00000000000000000000000000000000000000000000000000000000081526004016115e4906149cf565b60405180910390fd5b60008111611630576040517f08c379a000000000000000000000000000000000000000000000000000000000815260040161162790614a3b565b60405180910390fd5b80609c8190555042609d8190555061012c609d5461164e91906143d3565b609e81905550609b5460a3600001819055508060a360010181905550609d5460a360020181905550609e5460a360030181905550600160a960006101000a81548160ff021916908360038111156116a8576116a7613d02565b5b02179055506000609f60006101000a81548160ff0219169083151502179055507fce62b71aa24a7ffb1343c139b78d655d7b33bd66b2be4e83d9f6425b02eb197a609b546040516116f99190613b18565b60405180910390a150565b61170c6126e3565b73ffffffffffffffffffffffffffffffffffffffff1661172a611b01565b73ffffffffffffffffffffffffffffffffffffffff1614611780576040517f08c379a0000000000000000000000000000000000000000000000000000000008152600401611777906148d1565b60405180910390fd5b609e5442116117c4576040517f08c379a00000000000000000000000000000000000000000000000000000000081526004016117bb90614aa7565b60405180910390fd5b60001515609f60019054906101000a900460ff1615151461181a576040517f08c379a000000000000000000000000000000000000000000000000000000000815260040161181190614b13565b60405180910390fd5b6000609760009054906101000a900473ffffffffffffffffffffffffffffffffffffffff1673ffffffffffffffffffffffffffffffffffffffff1663e0c862896040518163ffffffff1660e01b81526004016020604051808303816000875af115801561188b573d6000803e3d6000fd5b505050506040513d601f19601f820116820180604052508101906118af9190614b48565b90506001609f60016101000a81548160ff021916908315150217905550600260a960006101000a81548160ff021916908360038111156118f2576118f1613d02565b5b02179055507fc3d0c9fbc1987665462eec0262eb7fc743a27d411fd3a0b9c20c1c64d99347d3816040516119269190613b18565b60405180910390a150565b6000606560008373ffffffffffffffffffffffffffffffffffffffff1673ffffffffffffffffffffffffffffffffffffffff168152602001908152602001600020549050919050565b6119826126e3565b73ffffffffffffffffffffffffffffffffffffffff166119a0611b01565b73ffffffffffffffffffffffffffffffffffffffff16146119f6576040517f08c379a00000000000000000000000000000000000000000000000000000000081526004016119ed906148d1565b60405180910390fd5b611a006000612e71565b565b609f60009054906101000a900460ff1681565b611a1d613965565b60ab60008381526020019081526020016000206040518060c0016040529081600082015481526020016001820154815260200160028201548152602001600382015481526020016004820160009054906101000a900473ffffffffffffffffffffffffffffffffffffffff1673ffffffffffffffffffffffffffffffffffffffff1673ffffffffffffffffffffffffffffffffffffffff1681526020016005820154815250509050919050565b609d5481565b60aa6020528160005260406000208181548110611aec57600080fd5b90600052602060002001600091509150505481565b6000603360009054906101000a900473ffffffffffffffffffffffffffffffffffffffff16905090565b606060698054611b3a906142e0565b80601f0160208091040260200160405190810160405280929190818152602001828054611b66906142e0565b8015611bb35780601f10611b8857610100808354040283529160200191611bb3565b820191906000526020600020905b815481529060010190602001808311611b9657829003601f168201915b5050505050905090565b611bc5613965565b60a36040518060c0016040529081600082015481526020016001820154815260200160028201548152602001600382015481526020016004820160009054906101000a900473ffffffffffffffffffffffffffffffffffffffff1673ffffffffffffffffffffffffffffffffffffffff1673ffffffffffffffffffffffffffffffffffffffff168152602001600582015481525050905090565b609b5481565b60008060666000611c746126e3565b73ffffffffffffffffffffffffffffffffffffffff1673ffffffffffffffffffffffffffffffffffffffff16815260200190815260200160002060008573ffffffffffffffffffffffffffffffffffffffff1673ffffffffffffffffffffffffffffffffffffffff16815260200190815260200160002054905082811015611d31576040517f08c379a0000000000000000000000000000000000000000000000000000000008152600401611d2890614be7565b60405180910390fd5b611d45611d3c6126e3565b858584036126eb565b600191505092915050565b600034905060008111611d98576040517f08c379a0000000000000000000000000000000000000000000000000000000008152600401611d8f90614c53565b60405180910390fd5b611da0611b01565b73ffffffffffffffffffffffffffffffffffffffff166108fc829081150290604051600060405180830381858888f19350505050158015611de5573d6000803e3d6000fd5b50611df03382612f37565b7f4e08ba899977cf7d4c2964bce71c6b9a7ef76ee5166a4c1249a1e08016e33ef181604051611e1f9190613b18565b60405180910390a150565b60af60009054906101000a900473ffffffffffffffffffffffffffffffffffffffff1681565b611e586126e3565b73ffffffffffffffffffffffffffffffffffffffff16611e76611b01565b73ffffffffffffffffffffffffffffffffffffffff1614611ecc576040517f08c379a0000000000000000000000000000000000000000000000000000000008152600401611ec3906148d1565b60405180910390fd5b60026003811115611ee057611edf613d02565b5b60a960009054906101000a900460ff166003811115611f0257611f01613d02565b5b14611f42576040517f08c379a0000000000000000000000000000000000000000000000000000000008152600401611f3990614cbf565b60405180910390fd5b609760009054906101000a900473ffffffffffffffffffffffffffffffffffffffff1673ffffffffffffffffffffffffffffffffffffffff166342619f666040518163ffffffff1660e01b8152600401602060405180830381865afa158015611faf573d6000803e3d6000fd5b505050506040513d601f19601f82011682018060405250810190611fd39190614b48565b60988190555060ac6000609854815260200190815260200160002060009054906101000a900473ffffffffffffffffffffffffffffffffffffffff16609a60006101000a81548173ffffffffffffffffffffffffffffffffffffffff021916908373ffffffffffffffffffffffffffffffffffffffff160217905550600073ffffffffffffffffffffffffffffffffffffffff16609a60009054906101000a900473ffffffffffffffffffffffffffffffffffffffff1673ffffffffffffffffffffffffffffffffffffffff16146120df576120d9609a60009054906101000a900473ffffffffffffffffffffffffffffffffffffffff166120d430611931565b610afc565b506120f0565b6120e7613098565b6120ef6131ae565b5b7fec5fbb90ad904e090f21495aa3914ca1b34c5b7ea3c8c6fb7f0ecb7cf2a9f543609b546040516121219190613b18565b60405180910390a1565b600061213f6121386126e3565b84846128b6565b6001905092915050565b60ac6020528060005260406000206000915054906101000a900473ffffffffffffffffffffffffffffffffffffffff1681565b60b05481565b600060a154905090565b609a60009054906101000a900473ffffffffffffffffffffffffffffffffffffffff1673ffffffffffffffffffffffffffffffffffffffff163373ffffffffffffffffffffffffffffffffffffffff16148061221a57506121eb611b01565b73ffffffffffffffffffffffffffffffffffffffff163373ffffffffffffffffffffffffffffffffffffffff16145b612259576040517f08c379a000000000000000000000000000000000000000000000000000000000815260040161225090614d2b565b60405180910390fd5b60001515609f60009054906101000a900460ff161515146122af576040517f08c379a00000000000000000000000000000000000000000000000000000000081526004016122a690614d97565b60405180910390fd5b600260038111156122c3576122c2613d02565b5b60a960009054906101000a900460ff1660038111156122e5576122e4613d02565b5b14612325576040517f08c379a000000000000000000000000000000000000000000000000000000000815260040161231c90614e29565b60405180910390fd5b600073ffffffffffffffffffffffffffffffffffffffff16609a60009054906101000a900473ffffffffffffffffffffffffffffffffffffffff1673ffffffffffffffffffffffffffffffffffffffff16146123e6576123b7612386611b01565b609a60009054906101000a900473ffffffffffffffffffffffffffffffffffffffff166123b230611931565b610b4d565b506123ca306123c530611931565b61334f565b6001609f60006101000a81548160ff0219169083151502179055505b6003808111156123f9576123f8613d02565b5b60a960009054906101000a900460ff16600381111561241b5761241a613d02565b5b5050612425613098565b61242d6131ae565b7f1c1f258cbfdae81beabe79c7a44ff65a9c9f4c17cb035f72b14d998c76345deb609b5460405161245e9190613b18565b60405180910390a1565b606060aa60008373ffffffffffffffffffffffffffffffffffffffff1673ffffffffffffffffffffffffffffffffffffffff1681526020019081526020016000208054806020026020016040519081016040528092919081815260200182805480156124f357602002820191906000526020600020905b8154815260200190600101908083116124df575b50505050509050919050565b6000606660008473ffffffffffffffffffffffffffffffffffffffff1673ffffffffffffffffffffffffffffffffffffffff16815260200190815260200160002060008373ffffffffffffffffffffffffffffffffffffffff1673ffffffffffffffffffffffffffffffffffffffff16815260200190815260200160002054905092915050565b609a60009054906101000a900473ffffffffffffffffffffffffffffffffffffffff1681565b6125b46126e3565b73ffffffffffffffffffffffffffffffffffffffff166125d2611b01565b73ffffffffffffffffffffffffffffffffffffffff1614612628576040517f08c379a000000000000000000000000000000000000000000000000000000000815260040161261f906148d1565b60405180910390fd5b600073ffffffffffffffffffffffffffffffffffffffff168173ffffffffffffffffffffffffffffffffffffffff161415612698576040517f08c379a000000000000000000000000000000000000000000000000000000000815260040161268f90614ebb565b60405180910390fd5b6126a181612e71565b50565b609981815481106126b457600080fd5b906000526020600020016000915054906101000a900473ffffffffffffffffffffffffffffffffffffffff1681565b600033905090565b600073ffffffffffffffffffffffffffffffffffffffff168373ffffffffffffffffffffffffffffffffffffffff16141561275b576040517f08c379a000000000000000000000000000000000000000000000000000000000815260040161275290614f4d565b60405180910390fd5b600073ffffffffffffffffffffffffffffffffffffffff168273ffffffffffffffffffffffffffffffffffffffff1614156127cb576040517f08c379a00000000000000000000000000000000000000000000000000000000081526004016127c290614fdf565b60405180910390fd5b80606660008573ffffffffffffffffffffffffffffffffffffffff1673ffffffffffffffffffffffffffffffffffffffff16815260200190815260200160002060008473ffffffffffffffffffffffffffffffffffffffff1673ffffffffffffffffffffffffffffffffffffffff168152602001908152602001600020819055508173ffffffffffffffffffffffffffffffffffffffff168373ffffffffffffffffffffffffffffffffffffffff167f8c5be1e5ebec7d5bd14f71427d1e84f3dd0314c0f7b2291e5b200ac8c7c3b925836040516128a99190613b18565b60405180910390a3505050565b600073ffffffffffffffffffffffffffffffffffffffff168373ffffffffffffffffffffffffffffffffffffffff161415612926576040517f08c379a000000000000000000000000000000000000000000000000000000000815260040161291d90615071565b60405180910390fd5b600073ffffffffffffffffffffffffffffffffffffffff168273ffffffffffffffffffffffffffffffffffffffff161415612996576040517f08c379a000000000000000000000000000000000000000000000000000000000815260040161298d90615103565b60405180910390fd5b6129a1838383613528565b6000606560008573ffffffffffffffffffffffffffffffffffffffff1673ffffffffffffffffffffffffffffffffffffffff16815260200190815260200160002054905081811015612a28576040517f08c379a0000000000000000000000000000000000000000000000000000000008152600401612a1f90615195565b60405180910390fd5b818103606560008673ffffffffffffffffffffffffffffffffffffffff1673ffffffffffffffffffffffffffffffffffffffff1681526020019081526020016000208190555081606560008573ffffffffffffffffffffffffffffffffffffffff1673ffffffffffffffffffffffffffffffffffffffff1681526020019081526020016000206000828254612abd91906143d3565b925050819055508273ffffffffffffffffffffffffffffffffffffffff168473ffffffffffffffffffffffffffffffffffffffff167fddf252ad1be2c89b69c2b068fc378daa952ba7f163c4a11628f55a4df523b3ef84604051612b219190613b18565b60405180910390a3612b3484848461352d565b50505050565b6000808284612b4991906143d3565b905083811015612b5857600080fd5b8091505092915050565b600060019054906101000a900460ff1680612b88575060008054906101000a900460ff16155b612bc7576040517f08c379a0000000000000000000000000000000000000000000000000000000008152600401612bbe90614963565b60405180910390fd5b60008060019054906101000a900460ff161590508015612c17576001600060016101000a81548160ff02191690831515021790555060016000806101000a81548160ff0219169083151502179055505b612c1f613532565b612c2761360b565b8015612c485760008060016101000a81548160ff0219169083151502179055505b50565b600060019054906101000a900460ff1680612c71575060008054906101000a900460ff16155b612cb0576040517f08c379a0000000000000000000000000000000000000000000000000000000008152600401612ca790614963565b60405180910390fd5b60008060019054906101000a900460ff161590508015612d00576001600060016101000a81548160ff02191690831515021790555060016000806101000a81548160ff0219169083151502179055505b612d08613532565b612d1283836136f4565b8015612d335760008060016101000a81548160ff0219169083151502179055505b505050565b6000600190505b60638111612d835760a08190806001815401808255809150506001900390600052602060002001600090919091909150558080612d7b90614812565b915050612d3f565b50565b60004290506000600160a080549050612d9f91906151b5565b90505b6000811115612e6d5760008160a080549050612dbe91906151b5565b83612dc99190615218565b9050600060a08381548110612de157612de06147e3565b5b90600052602060002001549050600060a08381548110612e0457612e036147e3565b5b906000526020600020015490508060a08581548110612e2657612e256147e3565b5b90600052602060002001819055508160a08481548110612e4957612e486147e3565b5b90600052602060002001819055505050508080612e659061485b565b915050612da2565b5050565b6000603360009054906101000a900473ffffffffffffffffffffffffffffffffffffffff16905081603360006101000a81548173ffffffffffffffffffffffffffffffffffffffff021916908373ffffffffffffffffffffffffffffffffffffffff1602179055508173ffffffffffffffffffffffffffffffffffffffff168173ffffffffffffffffffffffffffffffffffffffff167f8be0079c531659141344cd1fd0a4f28419497f9722a3daafe3b4186f6b6457e060405160405180910390a35050565b600073ffffffffffffffffffffffffffffffffffffffff168273ffffffffffffffffffffffffffffffffffffffff161415612fa7576040517f08c379a0000000000000000000000000000000000000000000000000000000008152600401612f9e90615295565b60405180910390fd5b612fb360008383613528565b8060676000828254612fc591906143d3565b9250508190555080606560008473ffffffffffffffffffffffffffffffffffffffff1673ffffffffffffffffffffffffffffffffffffffff168152602001908152602001600020600082825461301b91906143d3565b925050819055508173ffffffffffffffffffffffffffffffffffffffff16600073ffffffffffffffffffffffffffffffffffffffff167fddf252ad1be2c89b69c2b068fc378daa952ba7f163c4a11628f55a4df523b3ef836040516130809190613b18565b60405180910390a36130946000838361352d565b5050565b6040518060c00160405280609b548152602001609c548152602001609d548152602001609e548152602001609a60009054906101000a900473ffffffffffffffffffffffffffffffffffffffff1673ffffffffffffffffffffffffffffffffffffffff16815260200160985481525060ab6000609b600081548092919061311e90614812565b9190505581526020019081526020016000206000820151816000015560208201518160010155604082015181600201556060820151816003015560808201518160040160006101000a81548173ffffffffffffffffffffffffffffffffffffffff021916908373ffffffffffffffffffffffffffffffffffffffff16021790555060a08201518160050155905050565b6131b6612d38565b6131be612d86565b6131c66137fd565b6000609f60006101000a81548160ff0219169083151502179055506000609f60016101000a81548160ff021916908315150217905550606360a181905550600060a2819055506000609e819055506000609c81905550600060a960006101000a81548160ff0219169083600381111561324257613241613d02565b5b0217905550600067ffffffffffffffff81111561326257613261613ef2565b5b6040519080825280602002602001820160405280156132905781602001602082028036833780820191505090505b50609990805190602001906132a69291906139b1565b5060a36000808201600090556001820160009055600282016000905560038201600090556004820160006101000a81549073ffffffffffffffffffffffffffffffffffffffff02191690556005820160009055505060006098819055506000609d819055506000609a60006101000a81548173ffffffffffffffffffffffffffffffffffffffff021916908373ffffffffffffffffffffffffffffffffffffffff160217905550565b600073ffffffffffffffffffffffffffffffffffffffff168273ffffffffffffffffffffffffffffffffffffffff1614156133bf576040517f08c379a00000000000000000000000000000000000000000000000000000000081526004016133b690615327565b60405180910390fd5b6133cb82600083613528565b6000606560008473ffffffffffffffffffffffffffffffffffffffff1673ffffffffffffffffffffffffffffffffffffffff16815260200190815260200160002054905081811015613452576040517f08c379a0000000000000000000000000000000000000000000000000000000008152600401613449906153b9565b60405180910390fd5b818103606560008573ffffffffffffffffffffffffffffffffffffffff1673ffffffffffffffffffffffffffffffffffffffff1681526020019081526020016000208190555081606760008282546134aa91906151b5565b92505081905550600073ffffffffffffffffffffffffffffffffffffffff168373ffffffffffffffffffffffffffffffffffffffff167fddf252ad1be2c89b69c2b068fc378daa952ba7f163c4a11628f55a4df523b3ef8460405161350f9190613b18565b60405180910390a36135238360008461352d565b505050565b505050565b505050565b600060019054906101000a900460ff1680613558575060008054906101000a900460ff16155b613597576040517f08c379a000000000000000000000000000000000000000000000000000000000815260040161358e90614963565b60405180910390fd5b60008060019054906101000a900460ff1615905080156135e7576001600060016101000a81548160ff02191690831515021790555060016000806101000a81548160ff0219169083151502179055505b80156136085760008060016101000a81548160ff0219169083151502179055505b50565b600060019054906101000a900460ff1680613631575060008054906101000a900460ff16155b613670576040517f08c379a000000000000000000000000000000000000000000000000000000000815260040161366790614963565b60405180910390fd5b60008060019054906101000a900460ff1615905080156136c0576001600060016101000a81548160ff02191690831515021790555060016000806101000a81548160ff0219169083151502179055505b6136d06136cb6126e3565b612e71565b80156136f15760008060016101000a81548160ff0219169083151502179055505b50565b600060019054906101000a900460ff168061371a575060008054906101000a900460ff16155b613759576040517f08c379a000000000000000000000000000000000000000000000000000000000815260040161375090614963565b60405180910390fd5b60008060019054906101000a900460ff1615905080156137a9576001600060016101000a81548160ff02191690831515021790555060016000806101000a81548160ff0219169083151502179055505b82606890805190602001906137bf929190613a3b565b5081606990805190602001906137d6929190613a3b565b5080156137f85760008060016101000a81548160ff0219169083151502179055505b505050565b60005b6099805490508110156139625760aa600060998381548110613825576138246147e3565b5b9060005260206000200160009054906101000a900473ffffffffffffffffffffffffffffffffffffffff1673ffffffffffffffffffffffffffffffffffffffff1673ffffffffffffffffffffffffffffffffffffffff16815260200190815260200160002060006138969190613ac1565b600060ad6000609984815481106138b0576138af6147e3565b5b9060005260206000200160009054906101000a900473ffffffffffffffffffffffffffffffffffffffff1673ffffffffffffffffffffffffffffffffffffffff1673ffffffffffffffffffffffffffffffffffffffff1681526020019081526020016000208190555060ac600082815260200190815260200160002060006101000a81549073ffffffffffffffffffffffffffffffffffffffff0219169055808061395a90614812565b915050613800565b50565b6040518060c0016040528060008152602001600081526020016000815260200160008152602001600073ffffffffffffffffffffffffffffffffffffffff168152602001600081525090565b828054828255906000526020600020908101928215613a2a579160200282015b82811115613a295782518260006101000a81548173ffffffffffffffffffffffffffffffffffffffff021916908373ffffffffffffffffffffffffffffffffffffffff160217905550916020019190600101906139d1565b5b509050613a379190613ae2565b5090565b828054613a47906142e0565b90600052602060002090601f016020900481019282613a695760008555613ab0565b82601f10613a8257805160ff1916838001178555613ab0565b82800160010185558215613ab0579182015b82811115613aaf578251825591602001919060010190613a94565b5b509050613abd9190613ae2565b5090565b5080546000825590600052602060002090810190613adf9190613ae2565b50565b5b80821115613afb576000816000905550600101613ae3565b5090565b6000819050919050565b613b1281613aff565b82525050565b6000602082019050613b2d6000830184613b09565b92915050565b600081519050919050565b600082825260208201905092915050565b60005b83811015613b6d578082015181840152602081019050613b52565b83811115613b7c576000848401525b50505050565b6000601f19601f8301169050919050565b6000613b9e82613b33565b613ba88185613b3e565b9350613bb8818560208601613b4f565b613bc181613b82565b840191505092915050565b60006020820190508181036000830152613be68184613b93565b905092915050565b6000604051905090565b600080fd5b600080fd5b600073ffffffffffffffffffffffffffffffffffffffff82169050919050565b6000613c2d82613c02565b9050919050565b613c3d81613c22565b8114613c4857600080fd5b50565b600081359050613c5a81613c34565b92915050565b613c6981613aff565b8114613c7457600080fd5b50565b600081359050613c8681613c60565b92915050565b60008060408385031215613ca357613ca2613bf8565b5b6000613cb185828601613c4b565b9250506020613cc285828601613c77565b9150509250929050565b60008115159050919050565b613ce181613ccc565b82525050565b6000602082019050613cfc6000830184613cd8565b92915050565b7f4e487b7100000000000000000000000000000000000000000000000000000000600052602160045260246000fd5b60048110613d4257613d41613d02565b5b50565b6000819050613d5382613d31565b919050565b6000613d6382613d45565b9050919050565b613d7381613d58565b82525050565b6000602082019050613d8e6000830184613d6a565b92915050565b600080600060608486031215613dad57613dac613bf8565b5b6000613dbb86828701613c4b565b9350506020613dcc86828701613c4b565b9250506040613ddd86828701613c77565b9150509250925092565b613df081613c22565b82525050565b600060c082019050613e0b6000830189613b09565b613e186020830188613b09565b613e256040830187613b09565b613e326060830186613b09565b613e3f6080830185613de7565b613e4c60a0830184613b09565b979650505050505050565b600060208284031215613e6d57613e6c613bf8565b5b6000613e7b84828501613c77565b91505092915050565b600060ff82169050919050565b613e9a81613e84565b82525050565b6000602082019050613eb56000830184613e91565b92915050565b600060208284031215613ed157613ed0613bf8565b5b6000613edf84828501613c4b565b91505092915050565b600080fd5b600080fd5b7f4e487b7100000000000000000000000000000000000000000000000000000000600052604160045260246000fd5b613f2a82613b82565b810181811067ffffffffffffffff82111715613f4957613f48613ef2565b5b80604052505050565b6000613f5c613bee565b9050613f688282613f21565b919050565b600067ffffffffffffffff821115613f8857613f87613ef2565b5b613f9182613b82565b9050602081019050919050565b82818337600083830152505050565b6000613fc0613fbb84613f6d565b613f52565b905082815260208101848484011115613fdc57613fdb613eed565b5b613fe7848285613f9e565b509392505050565b600082601f83011261400457614003613ee8565b5b8135614014848260208601613fad565b91505092915050565b6000806040838503121561403457614033613bf8565b5b600083013567ffffffffffffffff81111561405257614051613bfd565b5b61405e85828601613fef565b925050602083013567ffffffffffffffff81111561407f5761407e613bfd565b5b61408b85828601613fef565b9150509250929050565b61409e81613aff565b82525050565b6140ad81613c22565b82525050565b60c0820160008201516140c96000850182614095565b5060208201516140dc6020850182614095565b5060408201516140ef6040850182614095565b5060608201516141026060850182614095565b50608082015161411560808501826140a4565b5060a082015161412860a0850182614095565b50505050565b600060c08201905061414360008301846140b3565b92915050565b600060208201905061415e6000830184613de7565b92915050565b600081519050919050565b600082825260208201905092915050565b6000819050602082019050919050565b600061419c8383614095565b60208301905092915050565b6000602082019050919050565b60006141c082614164565b6141ca818561416f565b93506141d583614180565b8060005b838110156142065781516141ed8882614190565b97506141f8836141a8565b9250506001810190506141d9565b5085935050505092915050565b6000602082019050818103600083015261422d81846141b5565b905092915050565b6000806040838503121561424c5761424b613bf8565b5b600061425a85828601613c4b565b925050602061426b85828601613c4b565b9150509250929050565b600061428082613c02565b9050919050565b61429081614275565b82525050565b60006020820190506142ab6000830184614287565b92915050565b7f4e487b7100000000000000000000000000000000000000000000000000000000600052602260045260246000fd5b600060028204905060018216806142f857607f821691505b6020821081141561430c5761430b6142b1565b5b50919050565b7f45524332303a207472616e7366657220616d6f756e742065786365656473206160008201527f6c6c6f77616e6365000000000000000000000000000000000000000000000000602082015250565b600061436e602883613b3e565b915061437982614312565b604082019050919050565b6000602082019050818103600083015261439d81614361565b9050919050565b7f4e487b7100000000000000000000000000000000000000000000000000000000600052601160045260246000fd5b60006143de82613aff565b91506143e983613aff565b9250827fffffffffffffffffffffffffffffffffffffffffffffffffffffffffffffffff0382111561441e5761441d6143a4565b5b828201905092915050565b7f4d6178696d756d206c696d697465642e00000000000000000000000000000000600082015250565b600061445f601083613b3e565b915061446a82614429565b602082019050919050565b6000602082019050818103600083015261448e81614452565b9050919050565b7f4f7574206f66207469636b65742e000000000000000000000000000000000000600082015250565b60006144cb600e83613b3e565b91506144d682614495565b602082019050919050565b600060208201905081810360008301526144fa816144be565b9050919050565b7f546865206c6f747465727920686173206e6f7420737461727465642079657421600082015250565b6000614537602083613b3e565b915061454282614501565b602082019050919050565b600060208201905081810360008301526145668161452a565b9050919050565b7f54696d65206973206f7665722100000000000000000000000000000000000000600082015250565b60006145a3600d83613b3e565b91506145ae8261456d565b602082019050919050565b600060208201905081810360008301526145d281614596565b9050919050565b7f4f776e65722063616e206e6f74206a6f696e2e00000000000000000000000000600082015250565b600061460f601383613b3e565b915061461a826145d9565b602082019050919050565b6000602082019050818103600083015261463e81614602565b9050919050565b600061465082613aff565b915061465b83613aff565b9250817fffffffffffffffffffffffffffffffffffffffffffffffffffffffffffffffff0483118215151615614694576146936143a4565b5b828202905092915050565b7f4e6f7420656e6f75676820746f6b656e2e000000000000000000000000000000600082015250565b60006146d5601183613b3e565b91506146e08261469f565b602082019050919050565b60006020820190508181036000830152614704816146c8565b9050919050565b7f4d757374206e6f74206265207a65726f2e000000000000000000000000000000600082015250565b6000614741601183613b3e565b915061474c8261470b565b602082019050919050565b6000602082019050818103600083015261477081614734565b9050919050565b7f4d6178696d756d203230207469636b657473207065722074696d652e00000000600082015250565b60006147ad601c83613b3e565b91506147b882614777565b602082019050919050565b600060208201905081810360008301526147dc816147a0565b9050919050565b7f4e487b7100000000000000000000000000000000000000000000000000000000600052603260045260246000fd5b600061481d82613aff565b91507fffffffffffffffffffffffffffffffffffffffffffffffffffffffffffffffff8214156148505761484f6143a4565b5b600182019050919050565b600061486682613aff565b9150600082141561487a576148796143a4565b5b600182039050919050565b7f4f776e61626c653a2063616c6c6572206973206e6f7420746865206f776e6572600082015250565b60006148bb602083613b3e565b91506148c682614885565b602082019050919050565b600060208201905081810360008301526148ea816148ae565b9050919050565b7f496e697469616c697a61626c653a20636f6e747261637420697320616c72656160008201527f647920696e697469616c697a6564000000000000000000000000000000000000602082015250565b600061494d602e83613b3e565b9150614958826148f1565b604082019050919050565b6000602082019050818103600083015261497c81614940565b9050919050565b7f50726576696f7573206c6f7474657279206973206e6f7420656e6465642e0000600082015250565b60006149b9601e83613b3e565b91506149c482614983565b602082019050919050565b600060208201905081810360008301526149e8816149ac565b9050919050565b7f496e76616c696420696e7075742e000000000000000000000000000000000000600082015250565b6000614a25600e83613b3e565b9150614a30826149ef565b602082019050919050565b60006020820190508181036000830152614a5481614a18565b9050919050565b7f4e6f7420656e6465642e00000000000000000000000000000000000000000000600082015250565b6000614a91600a83613b3e565b9150614a9c82614a5b565b602082019050919050565b60006020820190508181036000830152614ac081614a84565b9050919050565b7f526571756573746564212e000000000000000000000000000000000000000000600082015250565b6000614afd600b83613b3e565b9150614b0882614ac7565b602082019050919050565b60006020820190508181036000830152614b2c81614af0565b9050919050565b600081519050614b4281613c60565b92915050565b600060208284031215614b5e57614b5d613bf8565b5b6000614b6c84828501614b33565b91505092915050565b7f45524332303a2064656372656173656420616c6c6f77616e63652062656c6f7760008201527f207a65726f000000000000000000000000000000000000000000000000000000602082015250565b6000614bd1602583613b3e565b9150614bdc82614b75565b604082019050919050565b60006020820190508181036000830152614c0081614bc4565b9050919050565b7f496e76616c69642076616c75652e000000000000000000000000000000000000600082015250565b6000614c3d600e83613b3e565b9150614c4882614c07565b602082019050919050565b60006020820190508181036000830152614c6c81614c30565b9050919050565b7f4c6f747465727279206973206e6f7420636c6f736564207965742e0000000000600082015250565b6000614ca9601b83613b3e565b9150614cb482614c73565b602082019050919050565b60006020820190508181036000830152614cd881614c9c565b9050919050565b7f4f6e6c792077696e6e65722063616e20636c61696d2072657761726421000000600082015250565b6000614d15601d83613b3e565b9150614d2082614cdf565b602082019050919050565b60006020820190508181036000830152614d4481614d08565b9050919050565b7f5072697a652069732077697468647261776e2e00000000000000000000000000600082015250565b6000614d81601383613b3e565b9150614d8c82614d4b565b602082019050919050565b60006020820190508181036000830152614db081614d74565b9050919050565b7f4e6f2077696e6e6572206f72206c6f747465727279206973206e6f7420636c6f60008201527f736564207965742e000000000000000000000000000000000000000000000000602082015250565b6000614e13602883613b3e565b9150614e1e82614db7565b604082019050919050565b60006020820190508181036000830152614e4281614e06565b9050919050565b7f4f776e61626c653a206e6577206f776e657220697320746865207a65726f206160008201527f6464726573730000000000000000000000000000000000000000000000000000602082015250565b6000614ea5602683613b3e565b9150614eb082614e49565b604082019050919050565b60006020820190508181036000830152614ed481614e98565b9050919050565b7f45524332303a20617070726f76652066726f6d20746865207a65726f2061646460008201527f7265737300000000000000000000000000000000000000000000000000000000602082015250565b6000614f37602483613b3e565b9150614f4282614edb565b604082019050919050565b60006020820190508181036000830152614f6681614f2a565b9050919050565b7f45524332303a20617070726f766520746f20746865207a65726f20616464726560008201527f7373000000000000000000000000000000000000000000000000000000000000602082015250565b6000614fc9602283613b3e565b9150614fd482614f6d565b604082019050919050565b60006020820190508181036000830152614ff881614fbc565b9050919050565b7f45524332303a207472616e736665722066726f6d20746865207a65726f20616460008201527f6472657373000000000000000000000000000000000000000000000000000000602082015250565b600061505b602583613b3e565b915061506682614fff565b604082019050919050565b6000602082019050818103600083015261508a8161504e565b9050919050565b7f45524332303a207472616e7366657220746f20746865207a65726f206164647260008201527f6573730000000000000000000000000000000000000000000000000000000000602082015250565b60006150ed602383613b3e565b91506150f882615091565b604082019050919050565b6000602082019050818103600083015261511c816150e0565b9050919050565b7f45524332303a207472616e7366657220616d6f756e742065786365656473206260008201527f616c616e63650000000000000000000000000000000000000000000000000000602082015250565b600061517f602683613b3e565b915061518a82615123565b604082019050919050565b600060208201905081810360008301526151ae81615172565b9050919050565b60006151c082613aff565b91506151cb83613aff565b9250828210156151de576151dd6143a4565b5b828203905092915050565b7f4e487b7100000000000000000000000000000000000000000000000000000000600052601260045260246000fd5b600061522382613aff565b915061522e83613aff565b92508261523e5761523d6151e9565b5b828206905092915050565b7f45524332303a206d696e7420746f20746865207a65726f206164647265737300600082015250565b600061527f601f83613b3e565b915061528a82615249565b602082019050919050565b600060208201905081810360008301526152ae81615272565b9050919050565b7f45524332303a206275726e2066726f6d20746865207a65726f2061646472657360008201527f7300000000000000000000000000000000000000000000000000000000000000602082015250565b6000615311602183613b3e565b915061531c826152b5565b604082019050919050565b6000602082019050818103600083015261534081615304565b9050919050565b7f45524332303a206275726e20616d6f756e7420657863656564732062616c616e60008201527f6365000000000000000000000000000000000000000000000000000000000000602082015250565b60006153a3602283613b3e565b91506153ae82615347565b604082019050919050565b600060208201905081810360008301526153d281615396565b905091905056fea26469706673582212203f97613040bb9e3d0f1d19399be5b102e4e86507e1a313bf947ed9626c8e74cb64736f6c634300080a0033",
  "linkReferences": {},
  "deployedLinkReferences": {}
}