{
  "_format": "hh-sol-artifact-1",
  "contractName": "RequestVRFNumber",
  "sourceName": "contracts/RequestVRFNumber.sol",
  "abi": [
    {
      "inputs": [],
      "stateMutability": "nonpayable",
      "type": "constructor"
    },
    {
      "inputs": [
        {
          "internalType": "address",
          "name": "have",
          "type": "address"
        },
        {
          "internalType": "address",
          "name": "want",
          "type": "address"
        }
      ],
      "name": "OnlyCoordinatorCanFulfill",
      "type": "error"
    },
    {
      "inputs": [],
      "name": "getResult",
      "outputs": [
        {
          "internalType": "uint256",
          "name": "",
          "type": "uint256"
        }
      ],
      "stateMutability": "view",
      "type": "function"
    },
    {
      "inputs": [],
      "name": "randomResult",
      "outputs": [
        {
          "internalType": "uint256",
          "name": "",
          "type": "uint256"
        }
      ],
      "stateMutability": "view",
      "type": "function"
    },
    {
      "inputs": [
        {
          "internalType": "uint256",
          "name": "requestId",
          "type": "uint256"
        },
        {
          "internalType": "uint256[]",
          "name": "randomWords",
          "type": "uint256[]"
        }
      ],
      "name": "rawFulfillRandomWords",
      "outputs": [],
      "stateMutability": "nonpayable",
      "type": "function"
    },
    {
      "inputs": [],
      "name": "requestRandomWords",
      "outputs": [
        {
          "internalType": "uint256",
          "name": "",
          "type": "uint256"
        }
      ],
      "stateMutability": "nonpayable",
      "type": "function"
    },
    {
      "inputs": [
        {
          "internalType": "uint256",
          "name": "",
          "type": "uint256"
        }
      ],
      "name": "s_randomWords",
      "outputs": [
        {
          "internalType": "uint256",
          "name": "",
          "type": "uint256"
        }
      ],
      "stateMutability": "view",
      "type": "function"
    },
    {
      "inputs": [],
      "name": "s_requestId",
      "outputs": [
        {
          "internalType": "uint256",
          "name": "",
          "type": "uint256"
        }
      ],
      "stateMutability": "view",
      "type": "function"
    }
  ],
  "bytecode": "0x60a060405234801561001057600080fd5b50736168499c0cffcacd319c818142124b7a15e857ab8073ffffffffffffffffffffffffffffffffffffffff1660808173ffffffffffffffffffffffffffffffffffffffff16815250505033600360006101000a81548173ffffffffffffffffffffffffffffffffffffffff021916908373ffffffffffffffffffffffffffffffffffffffff1602179055506080516109266100be6000396000818161012d015261018101526109266000f3fe608060405234801561001057600080fd5b50600436106100625760003560e01c80631fe543e31461006757806342619f6614610083578063de292789146100a1578063e0c86289146100bf578063e89e106a146100dd578063f6eaffc8146100fb575b600080fd5b610081600480360381019061007c91906105b2565b61012b565b005b61008b6101eb565b604051610098919061061d565b60405180910390f35b6100a96101f1565b6040516100b6919061061d565b60405180910390f35b6100c76101fb565b6040516100d4919061061d565b60405180910390f35b6100e56102cd565b6040516100f2919061061d565b60405180910390f35b61011560048036038101906101109190610638565b6102d3565b604051610122919061061d565b60405180910390f35b7f000000000000000000000000000000000000000000000000000000000000000073ffffffffffffffffffffffffffffffffffffffff163373ffffffffffffffffffffffffffffffffffffffff16146101dd57337f00000000000000000000000000000000000000000000000000000000000000006040517f1cf993f40000000000000000000000000000000000000000000000000000000081526004016101d49291906106a6565b60405180910390fd5b6101e782826102f7565b5050565b60025481565b6000600254905090565b6000736168499c0cffcacd319c818142124b7a15e857ab73ffffffffffffffffffffffffffffffffffffffff16635d3b1d307fd89b2bf150e3b9e13446986e571fb9cab24b13cea0a43ea20a6049a85cc807cc60001b611aab6003620f424060016040518663ffffffff1660e01b815260040161027c959493929190610747565b6020604051808303816000875af115801561029b573d6000803e3d6000fd5b505050506040513d601f19601f820116820180604052508101906102bf91906107af565b600181905550600154905090565b60015481565b600081815481106102e357600080fd5b906000526020600020016000915090505481565b806000908051906020019061030d9291906103a5565b50610350600161034260648460008151811061032c5761032b6107dc565b5b602002602001015161035a90919063ffffffff16565b61037d90919063ffffffff16565b6002819055505050565b60008082141561036957600080fd5b8183610375919061083a565b905092915050565b600080828461038c919061089a565b90508381101561039b57600080fd5b8091505092915050565b8280548282559060005260206000209081019282156103e1579160200282015b828111156103e05782518255916020019190600101906103c5565b5b5090506103ee91906103f2565b5090565b5b8082111561040b5760008160009055506001016103f3565b5090565b6000604051905090565b600080fd5b600080fd5b6000819050919050565b61043681610423565b811461044157600080fd5b50565b6000813590506104538161042d565b92915050565b600080fd5b6000601f19601f8301169050919050565b7f4e487b7100000000000000000000000000000000000000000000000000000000600052604160045260246000fd5b6104a78261045e565b810181811067ffffffffffffffff821117156104c6576104c561046f565b5b80604052505050565b60006104d961040f565b90506104e5828261049e565b919050565b600067ffffffffffffffff8211156105055761050461046f565b5b602082029050602081019050919050565b600080fd5b600061052e610529846104ea565b6104cf565b9050808382526020820190506020840283018581111561055157610550610516565b5b835b8181101561057a57806105668882610444565b845260208401935050602081019050610553565b5050509392505050565b600082601f83011261059957610598610459565b5b81356105a984826020860161051b565b91505092915050565b600080604083850312156105c9576105c8610419565b5b60006105d785828601610444565b925050602083013567ffffffffffffffff8111156105f8576105f761041e565b5b61060485828601610584565b9150509250929050565b61061781610423565b82525050565b6000602082019050610632600083018461060e565b92915050565b60006020828403121561064e5761064d610419565b5b600061065c84828501610444565b91505092915050565b600073ffffffffffffffffffffffffffffffffffffffff82169050919050565b600061069082610665565b9050919050565b6106a081610685565b82525050565b60006040820190506106bb6000830185610697565b6106c86020830184610697565b9392505050565b6000819050919050565b6106e2816106cf565b82525050565b600067ffffffffffffffff82169050919050565b610705816106e8565b82525050565b600061ffff82169050919050565b6107228161070b565b82525050565b600063ffffffff82169050919050565b61074181610728565b82525050565b600060a08201905061075c60008301886106d9565b61076960208301876106fc565b6107766040830186610719565b6107836060830185610738565b6107906080830184610738565b9695505050505050565b6000815190506107a98161042d565b92915050565b6000602082840312156107c5576107c4610419565b5b60006107d38482850161079a565b91505092915050565b7f4e487b7100000000000000000000000000000000000000000000000000000000600052603260045260246000fd5b7f4e487b7100000000000000000000000000000000000000000000000000000000600052601260045260246000fd5b600061084582610423565b915061085083610423565b9250826108605761085f61080b565b5b828206905092915050565b7f4e487b7100000000000000000000000000000000000000000000000000000000600052601160045260246000fd5b60006108a582610423565b91506108b083610423565b9250827fffffffffffffffffffffffffffffffffffffffffffffffffffffffffffffffff038211156108e5576108e461086b565b5b82820190509291505056fea26469706673582212206cd744f84c7f19034bebda8ba799f51e4b75eab211f0183dd668dfcefe40e32264736f6c634300080a0033",
  "linkReferences": {},
  "deployedLinkReferences": {}
}